:100000000C9434000C94A9010C9451000C945100F0
:100010000C9451000C9451000C9451000C9451001C
:100020000C9451000C94C9000C9451000C94510094
:100030000C9451000C9451000C9451000C945100FC
:100040000C9451000C9451000C94E4000C94510059
:100050000C9422010C9451000C9451000C9451000A
:100060000C9451000C94510011241FBECFEFD8E026
:10007000DEBFCDBF11E0A0E0B1E0E2E4F5E002C0F8
:1000800005900D92A430B107D9F711E0A4E0B1E0DA
:1000900001C01D92A539B107E1F70E94E0010C945F
:1000A0009F020C940000CF93DF939FEF94B98AEFE7
:1000B0008AB95A9882E0809369001CBA81E08DBBAE
:1000C000C0E8D0E0888310928200109285001092E0
:1000D0008400A8E8B0E011961C921E92EAE8F0E0D5
:1000E0001182108216BA10926F001092B00023E0B5
:1000F0002093B10022ED2093B20017BA80937000D4
:1001000020EF288323EA24BD21E12093810085BDCF
:100110009093870090938600109289001C92109211
:100120008B00108218BC15B81092C50083E3809331
:10013000C400E1ECF0E08081886180838081806888
:100140008083808180648083E2ECF0E0808186603F
:100150008083EFE4F1E0A2E7B1E0CF018396119252
:100160001D92E817F907D9F783E290E09093100108
:1001700080930F0181E08093190110921301109276
:10018000350110921201109211017894DF91CF91F4
:1001900008951F920F920FB60F9211248F939F9381
:1001A00017BA82ED8093B200809107019091080107
:1001B000019690930801809307019F918F910F9072
:1001C0000FBE0F901F9018951F920F920FB60F92AF
:1001D00011248F939F93EF93FF938091C600809398
:1001E0001A01823049F45B9A81E080931901809171
:1001F0001A01809373011DC0833079F45B9880915C
:100200001901E2E7F1E0E80FF11D90911A019083E6
:1002100080931101109212010CC090911901E2E734
:10022000F1E0E90FF11D80839E3118F49F5F9093F8
:100230001901FF91EF919F918F910F900FBE0F9039
:100240001F9018951F920F920FB60F9211242F93A3
:100250008F939F93EF93FF9380913501882319F03B
:10026000109235011FC080911301EFE4F1E0E80F17
:10027000F11D90819093C6009081933019F08332E4
:1002800060F407C091E09093350190931B01833295
:1002900048F48F5F8093130105C081E0809335019E
:1002A00080931B01FF91EF919F918F912F910F9060
:1002B0000FBE0F901F9018958091090190910A012F
:1002C0008C309105A0F510920801109207014A990F
:1002D00003C05C9A4A9BFDCFE0910901F0910A01AD
:1002E000EE0FFF1FEA5CFE4F80910701909108011D
:1002F0009183808310920801109207014A9B03C0EA
:100300005C984A99FDCF8091090190910A01FC0106
:10031000EE0FFF1FE45EFE4F2091070130910801B0
:1003200031832083019690930A0180930901809183
:10033000090190910A018B30910521F410920A0174
:10034000109209010895E2EBF0E01082808180E0D4
:1003500008951F920F920FB60F9211242F933F937F
:100360004F935F936F937F938F939F93AF93BF93BD
:10037000EF93FF9380910B0190910C01009731F066
:100380005C9810920C0110920B0107C05C9A81E0FE
:1003900090E090930C0180930B010E94A301FF91C8
:1003A000EF91BF91AF919F918F917F916F915F91ED
:1003B0004F913F912F910F900FBE0F901F90189566
:1003C000CF93DF93CDB7DEB72A970FB6F894DEBF91
:1003D0000FBECDBF0E945300E6E1F1E021E00F2EF9
:1003E000F3E7AF2EF1E0BF2EF02D0F2EFFE4CF2E5E
:1003F000F1E0DF2EF02D32E046010894811C911CC3
:1004000066247724689461F86C0C7D1C0F2EF3E051
:100410004F2E5524F02D4C0C5D1C84E791E0019685
:100420009A87898722243324689422F82C0C3D1C57
:1004300044E751E04E5F5F4FD6011596BA83A9831A
:1004400064E771E06D5F7F4FC60106969C838B83E6
:1004500004E711E00C5F1F4FD6011796BE83AD83F2
:10046000C601089698878F830F2EF3E0FF2EF02D9C
:100470008091010190910201009729F05B9A1092FE
:100480000201109201018081813011F41082E89AFA
:100490008091110190911201009751F3209319015D
:1004A000D5018C91909100018917C9F4A4E7B1E0BE
:1004B0008C91A9E8B0E08C93A985BA858C91A8E8C5
:1004C000B0E08C93DA018C91ABE8B0E08C93DB0167
:1004D0008C91AAE8B0E08C93D8018C9188BDD601AC
:1004E0003C9380910001D4018C93A4E7B1E08C91FE
:1004F000D3018C93A985BA858C91D2018C93DA01B2
:100500008C91D1018C93DB018C91A981BA818C9360
:10051000D8018C91AB81BC818C9380910601AD8117
:10052000BE818C93AF81B885FC921092120110921B
:10053000110120931301A6ECB0E03C9399CFF894FD
:02054000FFCFEB
:0405420001010000B3
:040000050080010175
:00000001FF
