:100000000C9434000C942A020C9451000C9451006E
:100010000C9451000C9451000C9451000C9451001C
:100020000C9451000C94D1000C9451000C9451008C
:100030000C9451000C9451000C9451000C945100FC
:100040000C9451000C9451000C9406010C94510036
:100050000C9444010C9451000C9451000C945100E8
:100060000C9451000C94510011241FBECFEFD8E026
:10007000DEBFCDBF11E0A0E0B1E0EEE6F6E002C0E9
:1000800005900D92A630B107D9F711E0A6E0B1E0D6
:1000900001C01D92A536B107E1F70E9457020C94EA
:1000A00035030C940000CF93DF933FEF34B98AEF10
:1000B0008AB95A9882E0809369001CBA21E02DBB6E
:1000C00014BC84E085BD16BC17BC18BC17BAA0E7E9
:1000D000B0E02C9360E870E0FB0120831092820076
:1000E0001092850010928400C8E8D0E0198218822E
:1000F0008AE890E0FC011182108216BA10926F001B
:100100001092B00043E04093B1002C9340EFFB010C
:10011000408343EA44BD41E14093810025BD3093D3
:1001200087003093860010928900188210928B000D
:10013000FC01108218BC15B81092C50083E38093AF
:10014000C400E1ECF0E08081886180838081806878
:100150008083808180648083E2ECF0E0808186602F
:100160008083EFE1F1E0A2E4B1E0CF018396119248
:100170001D92E817F907D9F783E290E090931001F8
:1001800080930F0181E08093190110921301109266
:100190001D0110921201109211017894DF91CF91FC
:1001A00008951F920F920FB60F9211248F939F9371
:1001B00017BA89EE8093B2008091070190910801EF
:1001C000019690930801809307018330910520F0F8
:1001D000109202011092010180910B0190910C018B
:1001E000009731F05C9A10920C0110920B0107C03D
:1001F0005C9881E090E090930C0180930B019F91BB
:100200008F910F900FBE0F901F9018951F920F9215
:100210000FB60F9211248F939F93EF93FF938091CA
:10022000C60080931A01823049F45B9A81E0809382
:10023000190180911A01809343011DC0833079F424
:100240005B9880911901E2E4F1E0E80FF11D9091D3
:100250001A01908380931101109212010CC09091A9
:100260001901E2E4F1E0E90FF11D80839E3118F4F9
:100270009F5F90931901FF91EF919F918F910F9044
:100280000FBE0F901F9018951F920F920FB60F92EE
:1002900011242F938F939F93EF93FF9380911D01D0
:1002A000882319F010921D011FC080911301EFE106
:1002B000F1E0E80FF11D90819093C600908193309A
:1002C00019F0833260F407C091E090931D01909380
:1002D0001B01833248F48F5F8093130105C081E0D6
:1002E00080931D0180931B01FF91EF919F918F914E
:1002F0002F910F900FBE0F901F90189589EE80934D
:10030000B20080910101909102018630910509F4BB
:1003100059C087309105A0F482309105D1F1833026
:10032000910538F4009749F18130910509F08FC0AB
:100330002BC084309105B9F185309105C8F52EC0E8
:100340008930910509F45CC08A30910548F4873002
:10035000910509F441C08830910509F078C046C084
:100360008B30910509F460C08B30910508F452C0C0
:100370008C30910509F06BC061C01092060110929B
:1003800008011092070163C0109208011092070142
:100390005EC0109208011092070159C01092080126
:1003A0001092070154C010920801109207014FC02B
:1003B00010920801109207018091060180688093D5
:1003C000060145C0109208011092070180910601B4
:1003D0008064809306013BC01092080110920701CF
:1003E0008091060180628093060131C0109208015D
:1003F000109207018091060180618093060127C059
:100400001092080110920701809106018860809384
:1004100006011DC01092080110920701809106018B
:1004200084608093060113C01092080110920701A6
:100430008091060182608093060109C01092080134
:10044000109207018091060181608093060181E08E
:1004500090E008951F920F920FB60F9211242F93E0
:100460003F934F935F936F937F938F939F93AF933C
:10047000BF93EF93FF938091090190910A01019638
:1004800090930A01809309010E947E01FF91EF91F0
:10049000BF91AF919F918F917F916F915F914F919C
:1004A0003F912F910F900FBE0F901F901895CF93F3
:1004B000DF93CDB7DEB760970FB6F894DEBF0FBEFF
:1004C000CDBF0E94530003E411E06FE171E07B01B6
:1004D0000894E11CF11CCC24DD246894C1F8C60EFC
:1004E000D71EE4E4F1E00F2EF3E0AF2EBB24F02D95
:1004F000A60EB71ECF0101969E878D87882499246A
:10050000689482F8860E971EDF011296B88BAF872B
:100510000F2EF5E06F2E7724F02D660E771E9F01CB
:100520002D5F3F4F0F2EF6E04F2E5524F02D460E37
:10053000571EAF014C5F5F4F0F2EF7E02F2E332475
:10054000F02D260E371ECB0108969A838983DB0196
:100550001996BC83AB83CB010A969E838D83DB0106
:100560001B96B887AF83CB010C969A878987DB01EE
:100570001D96BC87AB878091030190910401009781
:1005800029F05B9A109204011092030180911101ED
:1005900090911201009779F381E080931901D801BD
:1005A0008C91909100018917A1F48081809389003A
:1005B000AD85BE858C9180938800AF85B8898C917C
:1005C00080938B00D9018C9180938A00DA018C9101
:1005D00088BD82E0DB018C9390910001D7019C9350
:1005E0009081D6019C93AD85BE859C91D5019C934D
:1005F000AF85B8899C91D4019C93D9019C91D3017A
:100600009C93DA019C91D2019C9310920601D10136
:100610001C92A1E0B1E09C91A981BA819C93A7E0D2
:10062000B1E09C91AB81BC819C93ADE0B1E09C9129
:10063000AD81BE819C93ABE0B1E09C91AF81B88568
:100640009C93A9E0B1E09C91A985BA859C9393E025
:10065000AB85BC859C93109212011092110191E020
:0E066000909313018093C60086CFF894FFCFCD
:06066E0001010001000083
:040000050080010373
:00000001FF
