:100000000C9434000C9451000C9451000C94510049
:100010000C9451000C9451000C9451000C9451001C
:100020000C9451000C9451000C9451000C9451000C
:100030000C9451000C9451000C9451000C945100FC
:100040000C9451000C9451000C9451000C945100EC
:100050000C9451000C9451000C9451000C945100DC
:100060000C9451000C94510011241FBECFEFD8E026
:10007000DEBFCDBF12E0A0E0B1E0EAE3F4E002C0F1
:1000800005900D92A03CB107D9F713E0A0ECB2E0C7
:1000900001C01D92AA38B107E1F70E9475010C94C6
:1000A0001B020C94000008958F929F92AF92BF9212
:1000B000CF92DF92EF92FF920F931F93CF93DF9334
:1000C000FC01E417F5070CF4AF018B01C4ECD2E09E
:1000D000EE24FF245A010894A108B10884E1882E77
:1000E000912C49C00894E11CF11CCA80DB80D80126
:1000F000ED91FC91888199819C01289DC001299DE9
:10010000900D389D900D11246AE070E00E94F4017A
:100110009B012E1B3F0B37FF03C0309521953F4FAE
:10012000CF0165E070E00E9408026217730754F186
:10013000D8011296ED91FC9113970C5F1F4F2496F6
:10014000C89CC001C99C900DD89C900D11246AE0F8
:1001500070E00E94F4019B012E1B3F0B37FF03C090
:10016000309521953F4FCF0165E070E00E94080275
:10017000621773073CF0EA14FB040CF4B3CF21E0E0
:1001800030E002C020E030E0C901DF91CF911F9143
:100190000F91FF90EF90DF90CF90BF90AF909F9026
:1001A0008F9008951092C00220E030E040E060E4BB
:1001B0007CE914C02F5F3F4FCB010197F1F78DEF22
:1001C000283E380710F0442311F4423339F44093A9
:1001D000C0028091C002A82FB0E02EC04C99EACF97
:1001E000A42FB0E0FD01EE0FFF1FEE0FFF1FEE5337
:1001F000FD4F3183208320E030E00EC02F5F3F4F62
:10020000CB010197F1F78DEF283E380718F0442312
:1002100019F010C0423371F04C9BF0CFAA0FBB1FF6
:10022000AA0FBB1FAC53BD4F2D933C934F5F20E0F3
:1002300030E0D4CF4093C002CD0108950F931F93B7
:100240000E94D2008C0160E071E046E250E00E9422
:100250005400C80160E372E044E250E00E945400A0
:10026000C80168E971E046E250E00E94540088E865
:1002700093E128EC30E0F9013197F1F70197D9F7D4
:100280001F910F91089508951092C50083E3809304
:10029000C400E1ECF0E0808188618083E2ECF0E072
:1002A000808186608083E0ECF0E080818D7F8083B8
:1002B0000895982F8091C00085FFFCCF9093C600D1
:1002C0008091C00080648093C00008958091C00038
:1002D00087FFFCCF8091C600089502C08091C600C0
:1002E0008091C00087FDFACF0895DF92EF92FF92D0
:1002F0000F931F93DF93CF93CDB7DEB727970FB63A
:10030000F894DEBF0FBECDBF0E94440180EF809302
:10031000800083EA84BD81E18093810081E085BD16
:100320009FEF94B98FEE8AB99093870090938600DF
:10033000109289001092880010928B0010928A000F
:1003400018BC15B802C08091C6008091C00087FD1E
:10035000FACFFE01319687E0DF011D928A95E9F719
:1003600020E030E08F0179E0D72E68E0E62EF12C16
:10037000EC0EFD1E0CC08091C00087FFFCCF809169
:10038000C600F801E20FF31F80832F5F3F4F273035
:10039000310588F3D092C102DF82F801908180910B
:1003A000C00085FFFCCF9093C6008091C0008064A0
:1003B0008093C0003196EE15FF0581F78981813069
:1003C00071F48A81809389008B81809388008C816D
:1003D00080938B008D8180938A008E8188BD0E94DE
:1003E0001E0120E030E0D3CFAA1BBB1B51E107C0A8
:1003F000AA1FBB1FA617B70710F0A61BB70B881FB5
:10040000991F5A95A9F780959095BC01CD01089543
:1004100097FB092E07260AD077FD04D0E5DF06D02A
:1004200000201AF4709561957F4F0895F6F7909526
:0A04300081959F4F0895F894FFCFC7
:10043A009003B6014400300044009E0044009E0030
:10044A0044009E004400300044009E0044009E0088
:10045A0044009E0046009C0046009E0044009E0008
:10046A004400300044002E0046002E0044002E00B6
:10047A004400A00044009E0046002E0044009E0056
:10048A0044002E0046002E004400300044002E0096
:10049A004400300042003000440030004200A00016
:1004AA00420032004200A000420032004000A00098
:1004BA004200320042006E0F8C03D6004200C40B89
:1004CA008C03D400440000008C03BC0140003200BD
:1004DA004200A2004000A2004000A20040003400F6
:1004EA004000A2004000A2004000A2004000A40078
:1004FA003E00A4004000A200400034003E00340048
:10050A0040003400400032004000A40040003200A5
:10051A004000A4004000A200400032004200320025
:10052A0042003200400032004200320040003400F3
:10053A00400032004200A000420032004000A20007
:10054A00420032004000A200400032004200620F26
:10055A008A03D6004200C60B8A03D6004000000078
:10056A008C03BA01420030004200A2004200A000FF
:10057A004200A000420032004200A0004200A00057
:10058A004200A00044009E004400A0004200A000D7
:10059A004200320042003000420032004200300085
:1005AA004200A2004200A000420030004400300095
:1005BA004200A000420032004200320042003000F5
:1005CA004200320042003000440030004200A000E5
:1005DA00420032004200A000420032004200A00065
:1005EA00420030004400600F8A03D6004200000037
:00000001FF

