:100000000C9434000C9451000C9451000C94510049
:100010000C9451000C9451000C9451000C9451001C
:100020000C9451000C9451000C9451000C9451000C
:100030000C9451000C9451000C9451000C945100FC
:100040000C9451000C9451000C9451000C945100EC
:100050000C9451000C9451000C9451000C945100DC
:100060000C9451000C94510011241FBECFEFD8E026
:10007000DEBFCDBF12E0A0E0B1E0ECE9F4E002C0E9
:1000800005900D92A03CB107D9F713E0A0ECB2E0C7
:1000900001C01D92A938B107E1F70E94A3010C9499
:1000A0004C020C94000008952F923F924F925F9261
:1000B0006F927F928F929F92AF92BF92CF92DF9278
:1000C000FF920F931F93CF93DF93242F352F821727
:1000D00093070CF49C01C62ED72E03EC12E0882463
:1000E000992419010894210831080F2EFAE06F2E87
:1000F0007724F02D0F2EF4E64F2E5524F02D66C0F8
:100100000894811C911CF8014281F3805601F6018C
:10011000C081D181F80180819181880F991F880F5A
:10012000991F9C01220F331F220F331F820F931F31
:10013000B3010E942502FB01EC1BFD0B1AF4F095A4
:10014000E195FF4FCE01880F991F880F991F9C01E1
:10015000220F331F220F331F820F931FB2010E9401
:1001600039026E177F07CCF1F501C281D38184E09B
:1001700090E0C80ED91E0C5F1F4F842F9F2D880F53
:10018000991F880F991F9C01220F331F220F331FC5
:10019000820F931FB3010E942502FB01EC1BFD0B94
:1001A0001AF4F095E195FF4FCE01880F991F880F43
:1001B000991F9C01220F331F220F331F820F931FA1
:1001C000B2010E9439026E177F0754F08214930423
:1001D0000CF496CF81E090E005C080E090E002C092
:1001E00080E090E0DF91CF911F910F91FF90DF9021
:1001F000CF90BF90AF909F908F907F906F905F90C7
:100200004F903F902F9008951092C00280E090E0B0
:1002100021EC32E040E050E018C00196E7E8F3E15D
:100220003197F1F700C00000FDEF883E9F0728F0EE
:100230006091C002662349F004C06091C00262333D
:1002400021F48091C00290E008954C99E6CFE091AE
:10025000C002F0E0EE0FFF1FEE0FFF1FE20FF31FD3
:1002600091838083CA0118C00196E7E8F3E13197D2
:10027000F1F700C00000FDEF883E9F0728F0609175
:10028000C002662349F004C06091C002623321F4C9
:100290008091C00290E008954C9BE6CF6091C0022F
:1002A000E62FF0E0EE0FFF1FEE0FFF1FE20FF31F30
:1002B000938382836F5F6093C002CA01C6CF0E949E
:1002C00004018FE996E8A1E081509040A040E1F759
:1002D00000C00000089508951092C50083E3809344
:1002E000C400E1ECF0E0808188618083E2ECF0E022
:1002F000808186608083E0ECF0E080818D7F808368
:100300000895E0ECF0E0908195FFFDCF8093C6006A
:10031000E0ECF0E08081806480830895E0ECF0E020
:1003200080818823ECF78091C60008958091C000F9
:10033000882344F4A6ECB0E0E0ECF0E08C918081FE
:100340008823E4F30895CF93DF9300D000D000D04A
:10035000CDB7DEB70E946C0190EF9093800083EAE6
:1003600084BD81E18093810081E085BD8FEF84B9F8
:100370008AB98093870080938600E4E6F0E02081CC
:10038000257D2083FE01319626E0DF011D922A950E
:10039000E9F72FE728BD90938900109288009AEF23
:1003A00090938B0010928A0085B90E94960100E01C
:1003B00010E00F2EF7E0EF2EFF24F02DEC0EFD1EC7
:1003C000CC24DD240F2EF9E8AF2EBB24F02D0F2E08
:1003D000F8E88F2E9924F02D0F2EFBE86F2E77244E
:1003E000F02D0F2EFAE84F2E5524F02D0BC00E9451
:1003F0008E01E1E0F0E0EC0FFD1FE00FF11F8083C4
:100400000F5F1F4F0630110590F38E010F5F1F4FD6
:10041000F80181918F010E9481010E151F05C1F71E
:100420008981813071F48A81D5018C938B81F401AB
:1004300080838C81D3018C938D81F20180838E81A6
:1004400088BD0E945F018601DDCFAA1BBB1B51E165
:1004500007C0AA1FBB1FA617B70710F0A61BB70B34
:10046000881F991F5A95A9F780959095BC01CD01D9
:10047000089597FB092E07260AD077FD04D0E5DF03
:1004800006D000201AF4709561957F4F0895F6F715
:0C049000909581959F4F0895F894FFCF40
:10049C008C03BA01420030004200A2004200A000CE
:1004AC004200A000420032004200A0004200A00026
:1004BC004200A00044009E004400A0004200A000A6
:1004CC004200320042003000420032004200300054
:1004DC004200A2004200A000420030004400300064
:1004EC004200A000420032004200320042003000C4
:1004FC004200320042003000440030004200A000B4
:10050C00420032004200A000420032004200A00033
:10051C00420030004400600F8A03D6004200000005
:10052C008C03BC01400032004200A2004000A2003B
:10053C004000A200400034004000A2004000A20095
:10054C004000A2004000A4003E00A4004000A20015
:10055C00400034003E0034004000340040003200C3
:10056C004000A400400032004000A4004000A20063
:10057C0040003200420032004200320040003200A3
:10058C004200320040003400400032004200A00023
:10059C00420032004000A200420032004000A200A3
:1005AC00400032004200620F8A03D6004200C60BA4
:1005BC008A03D600400000009003B60144003000CE
:1005CC0044009E0044009E0044009E004400300005
:1005DC0044009E0044009E0044009E0046009C0087
:1005EC0046009E0044009E004400300044002E0053
:1005FC0046002E0044002E004400A00044009E0043
:10060C0046002E0044009E0044002E0046002E00A2
:10061C004400300044002E00440030004200300002
:10062C00440030004200A000420032004200A00012
:10063C00420032004000A0004200320042006E0F27
:10064C008C03D6004200C40B8C03D4004400000081
:00000001FF
