:100000000C9434000C9451000C9451000C94510049
:100010000C9451000C9451000C9451000C9451001C
:100020000C9451000C9451000C9451000C9451000C
:100030000C9451000C9451000C9451000C945100FC
:100040000C9451000C9451000C9451000C945100EC
:100050000C9451000C9451000C9451000C945100DC
:100060000C9451000C94510011241FBECFEFD8E026
:10007000DEBFCDBF11E0A0E0B1E0ECE1F2E002C0F4
:1000800005900D92A030B107D9F711E0A0E0B1E0E2
:1000900001C01D92A030B107E1F70E948A000C94C4
:1000A0000C010C9400001092C50083E38093C400FF
:1000B000E1ECF0E0808188618083E2ECF0E0808117
:1000C00086608083E0ECF0E080818D7F80830895FE
:1000D000E0ECF0E0908195FFFDCF8093C600E0EC6E
:1000E000F0E08081806480830895E0ECF0E080811E
:1000F0008823ECF78091C60008958091C000882382
:1001000044F4A6ECB0E0E0ECF0E08C918081882330
:10011000E4F30895CF93DF9300D000D000D0CDB7A3
:10012000DEB70E94530090EF9093800083EA84BD75
:1001300081E18093810081E085BD8FEF84B98AB928
:100140008093870080938600E4E6F0E02081257D9F
:100150002083FE01319626E0DF011D922A95E9F702
:100160002FE728BD90938900109288009AEF909312
:100170008B0010928A0085B90E947D0000E010E09B
:100180000F2EF7E0EF2EFF24F02DEC0EFD1E0F2EAC
:10019000F9E8AF2EBB24F02D0F2EF8E88F2E99240E
:1001A000F02D0F2EFBE86F2E7724F02D0F2EFAE89E
:1001B0004F2E5524F02DCC24DD240DC00E94750057
:1001C000E1E0F0E0EC0FFD1FE00FF11F80830F5F17
:1001D0001F4F01C086010630110580F38E010F5FAD
:1001E0001F4FF80181918F010E9468000E151F05B5
:1001F000C1F78981813071F78A81D5018C938B8118
:10020000F40180838C81D3018C938D81F2018083F2
:0C0210008E8188BD8601DFCFF894FFCFFF
:00000001FF
